{
  "abi": [
    {
      "inputs": [
        {
          "internalType": "uint256",
          "name": "length",
          "type": "uint256"
        }
      ],
      "name": "PackedCounter_InvalidLength",
      "type": "error"
    },
    {
      "inputs": [
        {
          "internalType": "bytes",
          "name": "data",
          "type": "bytes"
        },
        {
          "internalType": "uint256",
          "name": "start",
          "type": "uint256"
        },
        {
          "internalType": "uint256",
          "name": "end",
          "type": "uint256"
        }
      ],
      "name": "Slice_OutOfBounds",
      "type": "error"
    },
    {
      "inputs": [
        {
          "internalType": "uint256",
          "name": "length",
          "type": "uint256"
        },
        {
          "internalType": "uint256",
          "name": "accessedIndex",
          "type": "uint256"
        }
      ],
      "name": "Store_IndexOutOfBounds",
      "type": "error"
    },
    {
      "inputs": [
        {
          "internalType": "bytes2",
          "name": "expected",
          "type": "bytes2"
        },
        {
          "internalType": "ResourceId",
          "name": "resourceId",
          "type": "bytes32"
        },
        {
          "internalType": "string",
          "name": "resourceIdString",
          "type": "string"
        }
      ],
      "name": "Store_InvalidResourceType",
      "type": "error"
    },
    {
      "inputs": [
        {
          "internalType": "uint40",
          "name": "startWithinField",
          "type": "uint40"
        },
        {
          "internalType": "uint40",
          "name": "deleteCount",
          "type": "uint40"
        },
        {
          "internalType": "uint40",
          "name": "fieldLength",
          "type": "uint40"
        }
      ],
      "name": "Store_InvalidSplice",
      "type": "error"
    },
    {
      "anonymous": false,
      "inputs": [
        {
          "indexed": true,
          "internalType": "ResourceId",
          "name": "tableId",
          "type": "bytes32"
        },
        {
          "indexed": false,
          "internalType": "bytes32[]",
          "name": "keyTuple",
          "type": "bytes32[]"
        }
      ],
      "name": "Store_DeleteRecord",
      "type": "event"
    },
    {
      "anonymous": false,
      "inputs": [
        {
          "indexed": true,
          "internalType": "ResourceId",
          "name": "tableId",
          "type": "bytes32"
        },
        {
          "indexed": false,
          "internalType": "bytes32[]",
          "name": "keyTuple",
          "type": "bytes32[]"
        },
        {
          "indexed": false,
          "internalType": "bytes",
          "name": "staticData",
          "type": "bytes"
        },
        {
          "indexed": false,
          "internalType": "PackedCounter",
          "name": "encodedLengths",
          "type": "bytes32"
        },
        {
          "indexed": false,
          "internalType": "bytes",
          "name": "dynamicData",
          "type": "bytes"
        }
      ],
      "name": "Store_SetRecord",
      "type": "event"
    },
    {
      "anonymous": false,
      "inputs": [
        {
          "indexed": true,
          "internalType": "ResourceId",
          "name": "tableId",
          "type": "bytes32"
        },
        {
          "indexed": false,
          "internalType": "bytes32[]",
          "name": "keyTuple",
          "type": "bytes32[]"
        },
        {
          "indexed": false,
          "internalType": "uint48",
          "name": "start",
          "type": "uint48"
        },
        {
          "indexed": false,
          "internalType": "uint40",
          "name": "deleteCount",
          "type": "uint40"
        },
        {
          "indexed": false,
          "internalType": "PackedCounter",
          "name": "encodedLengths",
          "type": "bytes32"
        },
        {
          "indexed": false,
          "internalType": "bytes",
          "name": "data",
          "type": "bytes"
        }
      ],
      "name": "Store_SpliceDynamicData",
      "type": "event"
    },
    {
      "anonymous": false,
      "inputs": [
        {
          "indexed": true,
          "internalType": "ResourceId",
          "name": "tableId",
          "type": "bytes32"
        },
        {
          "indexed": false,
          "internalType": "bytes32[]",
          "name": "keyTuple",
          "type": "bytes32[]"
        },
        {
          "indexed": false,
          "internalType": "uint48",
          "name": "start",
          "type": "uint48"
        },
        {
          "indexed": false,
          "internalType": "bytes",
          "name": "data",
          "type": "bytes"
        }
      ],
      "name": "Store_SpliceStaticData",
      "type": "event"
    },
    {
      "anonymous": false,
      "inputs": [
        {
          "indexed": false,
          "internalType": "uint256",
          "name": "cityId",
          "type": "uint256"
        },
        {
          "indexed": false,
          "internalType": "address",
          "name": "purchaser",
          "type": "address"
        },
        {
          "indexed": false,
          "internalType": "uint256",
          "name": "cost",
          "type": "uint256"
        }
      ],
      "name": "cityBought",
      "type": "event"
    },
    {
      "anonymous": false,
      "inputs": [
        {
          "indexed": false,
          "internalType": "uint256",
          "name": "soldierId",
          "type": "uint256"
        },
        {
          "indexed": false,
          "internalType": "address",
          "name": "allegiance",
          "type": "address"
        },
        {
          "indexed": false,
          "internalType": "uint256",
          "name": "tileId",
          "type": "uint256"
        },
        {
          "indexed": false,
          "internalType": "uint256",
          "name": "attack",
          "type": "uint256"
        },
        {
          "indexed": false,
          "internalType": "uint256",
          "name": "defense",
          "type": "uint256"
        },
        {
          "indexed": false,
          "internalType": "uint256",
          "name": "mobility",
          "type": "uint256"
        }
      ],
      "name": "soldierCreated",
      "type": "event"
    },
    {
      "inputs": [],
      "name": "_msgSender",
      "outputs": [
        {
          "internalType": "address",
          "name": "sender",
          "type": "address"
        }
      ],
      "stateMutability": "view",
      "type": "function"
    },
    {
      "inputs": [],
      "name": "_msgValue",
      "outputs": [
        {
          "internalType": "uint256",
          "name": "value",
          "type": "uint256"
        }
      ],
      "stateMutability": "pure",
      "type": "function"
    },
    {
      "inputs": [],
      "name": "_world",
      "outputs": [
        {
          "internalType": "address",
          "name": "",
          "type": "address"
        }
      ],
      "stateMutability": "view",
      "type": "function"
    },
    {
      "inputs": [
        {
          "internalType": "uint256",
          "name": "cityId",
          "type": "uint256"
        }
      ],
      "name": "buyCity",
      "outputs": [],
      "stateMutability": "payable",
      "type": "function"
    },
    {
      "inputs": [
        {
          "internalType": "int256[3]",
          "name": "tileA",
          "type": "int256[3]"
        },
        {
          "internalType": "int256[3]",
          "name": "tileB",
          "type": "int256[3]"
        }
      ],
      "name": "checkAdjacent",
      "outputs": [
        {
          "internalType": "bool",
          "name": "",
          "type": "bool"
        }
      ],
      "stateMutability": "pure",
      "type": "function"
    },
    {
      "inputs": [
        {
          "internalType": "uint256",
          "name": "soldierId",
          "type": "uint256"
        }
      ],
      "name": "checkTerritoryClaim",
      "outputs": [
        {
          "internalType": "bool",
          "name": "",
          "type": "bool"
        }
      ],
      "stateMutability": "nonpayable",
      "type": "function"
    },
    {
      "inputs": [
        {
          "internalType": "uint256",
          "name": "soldierId",
          "type": "uint256"
        },
        {
          "internalType": "address",
          "name": "allegiance",
          "type": "address"
        },
        {
          "internalType": "uint256",
          "name": "tileId",
          "type": "uint256"
        },
        {
          "internalType": "uint256",
          "name": "attack",
          "type": "uint256"
        },
        {
          "internalType": "uint256",
          "name": "defense",
          "type": "uint256"
        },
        {
          "internalType": "uint256",
          "name": "mobility",
          "type": "uint256"
        }
      ],
      "name": "createSoldier",
      "outputs": [],
      "stateMutability": "nonpayable",
      "type": "function"
    },
    {
      "inputs": [
        {
          "internalType": "uint256",
          "name": "soldierId",
          "type": "uint256"
        },
        {
          "internalType": "uint256",
          "name": "destinationTileId",
          "type": "uint256"
        }
      ],
      "name": "moveSoldier",
      "outputs": [
        {
          "internalType": "bool",
          "name": "",
          "type": "bool"
        }
      ],
      "stateMutability": "nonpayable",
      "type": "function"
    },
    {
      "inputs": [],
      "name": "pseudoConstructor",
      "outputs": [],
      "stateMutability": "nonpayable",
      "type": "function"
    },
    {
      "inputs": [
        {
          "internalType": "address",
          "name": "newOwner",
          "type": "address"
        },
        {
          "internalType": "uint256",
          "name": "cityId",
          "type": "uint256"
        }
      ],
      "name": "setCityOwner",
      "outputs": [],
      "stateMutability": "nonpayable",
      "type": "function"
    },
    {
      "inputs": [
        {
          "internalType": "uint256",
          "name": "cityId",
          "type": "uint256"
        },
        {
          "internalType": "uint256",
          "name": "sectorNumber",
          "type": "uint256"
        },
        {
          "internalType": "uint256",
          "name": "buildingType",
          "type": "uint256"
        }
      ],
      "name": "setSector",
      "outputs": [],
      "stateMutability": "nonpayable",
      "type": "function"
    },
    {
      "inputs": [
        {
          "internalType": "uint256",
          "name": "attackingSoldierId",
          "type": "uint256"
        },
        {
          "internalType": "uint256",
          "name": "defendingSoldierId",
          "type": "uint256"
        }
      ],
      "name": "soldierAttack",
      "outputs": [
        {
          "internalType": "bool",
          "name": "",
          "type": "bool"
        }
      ],
      "stateMutability": "nonpayable",
      "type": "function"
    },
    {
      "inputs": [
        {
          "internalType": "bytes4",
          "name": "interfaceId",
          "type": "bytes4"
        }
      ],
      "name": "supportsInterface",
      "outputs": [
        {
          "internalType": "bool",
          "name": "",
          "type": "bool"
        }
      ],
      "stateMutability": "pure",
      "type": "function"
    }
  ],
  "bytecode": {
    "object": "0x608060405234801561001057600080fd5b506141ff806100206000396000f3fe6080604052600436106100d25760003560e01c80636b6dee371161007f578063bee3002511610059578063bee3002514610203578063c56f2e7014610223578063e1af802c14610243578063f1fa0b311461025857600080fd5b80636b6dee37146101b05780636bec454a146101d05780639d7efbea146101e357600080fd5b80631b043da1116100b05780631b043da11461015b5780632d97d0371461017b57806345ec93541461019057600080fd5b806301ffc9a7146100d7578063119df25f1461010c57806313b4d65414610139575b600080fd5b3480156100e357600080fd5b506100f76100f23660046138f6565b610278565b60405190151581526020015b60405180910390f35b34801561011857600080fd5b50610121610311565b6040516001600160a01b039091168152602001610103565b34801561014557600080fd5b5061015961015436600461394f565b610320565b005b34801561016757600080fd5b5061015961017636600461399d565b61046e565b34801561018757600080fd5b5061015961047e565b34801561019c57600080fd5b50604051601f193601358152602001610103565b3480156101bc57600080fd5b506100f76101cb3660046139c9565b6108a7565b6101596101de3660046139eb565b610a3f565b3480156101ef57600080fd5b506101596101fe366004613a04565b610b7a565b34801561020f57600080fd5b506100f761021e366004613ab2565b610b88565b34801561022f57600080fd5b506100f761023e3660046139eb565b610d0a565b34801561024f57600080fd5b50610121610dfb565b34801561026457600080fd5b506100f76102733660046139c9565b610e05565b60007fffffffff0000000000000000000000000000000000000000000000000000000082167fb421288000000000000000000000000000000000000000000000000000000000148061030b57507fffffffff0000000000000000000000000000000000000000000000000000000082167f01ffc9a700000000000000000000000000000000000000000000000000000000145b92915050565b600061031b610fb1565b905090565b600061032b85610fe3565b90506001600160a01b03811615806103545750856001600160a01b0316816001600160a01b0316145b61035d57600080fd5b600061036a600787613afd565b6103749087613b27565b905061037f816110a5565b6001600160a01b0316876001600160a01b03161480156103a857506103a5600787613afd565b15155b6103b157600080fd5b60006103bc8761115f565b9050600681106103cb57600080fd5b6001600160a01b0383166103e3576103e3878961121e565b6103f18989898989896112fc565b61040587610400836001613b3a565b6113f0565b604080518a81526001600160a01b038a166020820152908101889052606081018790526080810186905260a081018590527f1a7a1c490c5dd1255a093547a7bea1c787d1021c332f2fad582a136ee4dbd5ae9060c00160405180910390a1505050505050505050565b61047983838361148a565b505050565b6104dc60008060006040518060600160405280600081526020016000815260200160008152506040518060c001604052806000815260200160008152602001600081526020016001815260200160018152602001600181525061154a565b6105596007600080604051806060016040528060028152602001600181526020017ffffffffffffffffffffffffffffffffffffffffffffffffffffffffffffffffd8152506040518060c001604052806000815260200160008152602001600081526020016001815260200160018152602001600181525061154a565b60005b60028110156108a457600061057a610575836007613b4d565b6115fa565b90506105f161058a836007613b4d565b6000806040518060600160405280866000600381106105ab576105ab613b64565b60200201518152602001866001600381106105c8576105c8613b64565b60200201518152602001866002600381106105e5576105e5613b64565b602002015190526116b9565b6106606105ff836007613b4d565b61060a906001613b3a565b60008060405180606001604052808660006003811061062b5761062b613b64565b602002015161063b906001613b7a565b81526020016001878160200201516106539190613ba2565b81526020018660026105e5565b6106d561066e836007613b4d565b610679906002613b3a565b60008060405180606001604052808660006003811061069a5761069a613b64565b60200201516106aa906001613b7a565b81526020878101519082015260400160018760025b60200201516106ce9190613ba2565b90526116b9565b61074b6106e3836007613b4d565b6106ee906003613b3a565b60008060405180606001604052808660006003811061070f5761070f613b64565b602002015181526020018660016003811061072c5761072c613b64565b602002015161073c906001613b7a565b815260200160018760026106bf565b6107ae610759836007613b4d565b610764906004613b3a565b600080604051806060016040528060018760006003811061078757610787613b64565b60200201516107969190613ba2565b81526020018660016020020151610653906001613b7a565b61081c6107bc836007613b4d565b6107c7906005613b3a565b60008060405180606001604052806001876000600381106107ea576107ea613b64565b60200201516107f99190613ba2565b8152602087810151908201526040018660025b60200201516106ce906001613b7a565b61089161082a836007613b4d565b610835906006613b3a565b60008060405180606001604052808660006003811061085657610856613b64565b6020020151815260200160018760016003811061087557610875613b64565b60200201516108849190613ba2565b815260200186600261080c565b508061089c81613bc9565b91505061055c565b50565b6000806108b384611763565b905060006108c08561180b565b905060006108cd836118b3565b905060006108da866118b3565b80519091501580156108ee57506020810151155b80156108fc57506040810151155b1561090e57600094505050505061030b565b6109188282610b88565b61092957600094505050505061030b565b610934600787613afd565b60000361094857600094505050505061030b565b600061095387610fe3565b905060006109608861115f565b90506001600160a01b0382166109df5761097a8989611934565b610984888661121e565b61098f8860016113f0565b6000600161099c8861115f565b6109a69190613b27565b90506109b287826113f0565b806000036109c5576109c587600061121e565b6109ce8a610d0a565b50600197505050505050505061030b565b846001600160a01b0316826001600160a01b0316148015610a005750600681105b15610a1e57610a0f8989611934565b61098f88610400836001613b3a565b80600003610a305761097a8989611934565b50600098975050505050505050565b6509184e72a000341015610ab4576040517f08c379a000000000000000000000000000000000000000000000000000000000815260206004820152601a60248201527f4e6f7420302e303030303120657468206f72206772656174657200000000000060448201526064015b60405180910390fd5b6000610abf826110a5565b6001600160a01b031614610b2f576040517f08c379a000000000000000000000000000000000000000000000000000000000815260206004820152601760248201527f4369747920697320616c726561647920636c61696d65640000000000000000006044820152606401610aab565b610b3981336119f4565b60408051828152336020820152348183015290517f21b2b7e4681e982b24ba6a9742e1202ef381e8100fe8f98a6f70c5895ad490a19181900360600190a150565b610b8481836119f4565b5050565b8051825160009190610b9b906001613b7a565b148015610bbb575060208083015190840151610bb990600190613ba2565b145b15610bc85750600161030b565b81518351610bd7906001613b7a565b148015610bf7575060408083015190840151610bf590600190613ba2565b145b15610c045750600161030b565b60208083015190840151610c19906001613b7a565b148015610c39575060408083015190840151610c3790600190613ba2565b145b15610c465750600161030b565b81518351610c5690600190613ba2565b148015610c75575060208083015190840151610c73906001613b7a565b145b15610c825750600161030b565b81518351610c9290600190613ba2565b148015610cb1575060408083015190840151610caf906001613b7a565b145b15610cbe5750600161030b565b60208083015190840151610cd490600190613ba2565b148015610cf4575060408083015190840151610cf290600190613ba2565b145b15610d015750600161030b565b50600092915050565b600080610d1683611763565b90506000610d238461180b565b90506000610d32600784613afd565b610d3c9084613b27565b90506000610d49826110a5565b90506001600160a01b038116610d655750600095945050505050565b6000610d72836001613b3a565b90505b610d80836007613b3a565b811015610de4576000610d9282610fe3565b9050846001600160a01b0316816001600160a01b031614158015610dbe57506001600160a01b03811615155b15610dd157506000979650505050505050565b5080610ddc81613bc9565b915050610d75565b50610def82846119f4565b50600195945050505050565b600061031b611ad4565b600080610e1184611763565b90506000610e1e84611763565b90506000610e2b866118b3565b90506000610e38866118b3565b9050610e448282610b88565b610e5557600094505050505061030b565b6000610e6084610fe3565b90506000610e6d86610fe3565b9050806001600160a01b0316826001600160a01b031603610e97576000965050505050505061030b565b6000610ea289611b13565b90506000610eaf8b611bbb565b90506000610ebc8b611bbb565b90506000610ec98d611b13565b90506001848410610f16576000610edf8b61115f565b905080600103610ef457610ef48b600061121e565b610f038b610400600184613b27565b610f0c8e611c63565b6000915050610f29565b610f298d610f248688613b27565b611cf2565b818310610f7f576000610f3b8c61115f565b905080600103610f5057610f508c600061121e565b610f5f8c610400600184613b27565b610f688f611c63565b8115610f7957610f778e610d0a565b505b50610f9d565b610f8d8e610f248585613b27565b80610f9d57610f9b8e610d0a565b505b5060019d9c50505050505050505050505050565b7fffffffffffffffffffffffffffffffffffffffffffffffffffffffffffffffcc36013560601c80610fe05750335b90565b604080516001808252818301909252600091829190602080830190803683370190505090508260001b8160008151811061101f5761101f613b64565b60209081029190910181019190915260408051613a3160f11b928101929092526000602283018190526204d61760ec1b60308401529161109a910160405160208183030381529060405261107290613be3565b8360007e34020114200000000000000000000000000000000000000000000000000000611d91565b60601c949350505050565b604080516001808252818301909252600091829190602080830190803683370190505090508260001b816000815181106110e1576110e1613b64565b60209081029190910181019190915260408051613a3160f11b928101929092526000602283018190526543697469657360d01b60308401529161109a910160405160208183030381529060405261113790613be3565b8360007e34020214200000000000000000000000000000000000000000000000000000611d91565b604080516001808252818301909252600091829190602080830190803683370190505090508260001b8160008151811061119b5761119b613b64565b60209081029190910181019190915260408051613a3160f11b928101929092526000602283018190526204d61760ec1b60308401529161121691016040516020818303038152906040526111ee90613be3565b8360017e34020114200000000000000000000000000000000000000000000000000000611d91565b949350505050565b604080516001808252818301909252600091602080830190803683370190505090508260001b8160008151811061125757611257613b64565b60209081029190910181019190915260408051613a3160f11b81840152600060228201526204d61760ec1b60308201528151808203909301835281019052610479906112a290613be3565b6040516bffffffffffffffffffffffff19606086901b16602082015283906000906034015b60408051601f198184030181529190527e34020114200000000000000000000000000000000000000000000000000000611e4e565b60408051606087811b6bffffffffffffffffffffffff1916602080840191909152603483018890526054830187905260748301869052609480840186905284518085039091018152600160b4850181815260f486019096529094600094859391929160d490910190803683370190505090508960001b8160008151811061138557611385613b64565b60209081029190910181019190915260408051613a3160f11b928101929092526000602283015267536f6c646965727360c01b60308301526113e491015b6040516020818303038152906040526113db90613be3565b82868686611eff565b50505050505050505050565b604080516001808252818301909252600091602080830190803683370190505090508260001b8160008151811061142957611429613b64565b60209081029190910181019190915260408051613a3160f11b81840152600060228201526204d61760ec1b603082015281518082039093018352810190526104799061147490613be3565b826001856040516020016112c791815260200190565b604080516001808252818301909252600091602080830190803683370190505090508360001b816000815181106114c3576114c3613b64565b6020026020010181815250506000826040516020016114e491815260200190565b60408051601f19818403018152828252613a3160f11b6020840152600060228401526543697469657360d01b60308401529250611543910160405160208183030381529060405261153490613be3565b83600187602002855186611f75565b5050505050565b6000611556858561202f565b90506000611564848461206e565b905060006115728585612086565b60408051600180825281830190925291925060009190602080830190803683370190505090508860001b816000815181106115af576115af613b64565b60209081029190910181019190915260408051613a3160f11b92810192909252600060228301526543697469657360d01b60308301526115ef91016113c3565b505050505050505050565b6116026138d8565b604080516001808252818301909252600091602080830190803683370190505090508260001b8160008151811061163b5761163b613b64565b60209081029190910181019190915260408051613a3160f11b928101929092526000602283018190526543697469657360d01b60308401529161169a91015b60405160208183030381529060405261169290613be3565b8360006120b6565b90506112166116b46116af836000855161217d565b61220d565b61221e565b60006116c5848461202f565b905060006116d28361223c565b905060006116df8461224c565b60408051600180825281830190925291925060009190602080830190803683370190505090508760001b8160008151811061171c5761171c613b64565b60209081029190910181019190915260408051613a3160f11b92810192909252600060228301526204d61760ec1b603083015261175991016113c3565b5050505050505050565b604080516001808252818301909252600091829190602080830190803683370190505090508260001b8160008151811061179f5761179f613b64565b60209081029190910181019190915260408051613a3160f11b9281019290925260006022830181905267536f6c646965727360c01b60308401529161121691016040516020818303038152906040526117f790613be3565b8360016704a02800a101010160bd1b611d91565b604080516001808252818301909252600091829190602080830190803683370190505090508260001b8160008151811061184757611847613b64565b60209081029190910181019190915260408051613a3160f11b9281019290925260006022830181905267536f6c646965727360c01b60308401529161109a910160405160208183030381529060405261189f90613be3565b8360006704a02800a101010160bd1b611d91565b6118bb6138d8565b604080516001808252818301909252600091602080830190803683370190505090508260001b816000815181106118f4576118f4613b64565b60209081029190910181019190915260408051613a3160f11b928101929092526000602283018190526204d61760ec1b60308401529161169a910161167a565b604080516001808252818301909252600091602080830190803683370190505090508260001b8160008151811061196d5761196d613b64565b60209081029190910181019190915260408051613a3160f11b818401526000602282015267536f6c646965727360c01b60308201528151808203909301835281019052610479906119bd90613be3565b826001856040516020016119d391815260200190565b60408051601f198184030181529190526704a02800a101010160bd1b611e4e565b604080516001808252818301909252600091602080830190803683370190505090508260001b81600081518110611a2d57611a2d613b64565b60209081029190910181019190915260408051613a3160f11b81840152600060228201526543697469657360d01b6030820152815180820390930183528101905261047990611a7b90613be3565b6040516bffffffffffffffffffffffff19606086901b166020820152839060009060340160408051601f198184030181529190527e34020214200000000000000000000000000000000000000000000000000000611e4e565b7f629a4c26e296b22a8e0856e9f6ecb2d1008d7e00081111962cd175fa7488e175546000906001600160a01b031680611b0e573391505090565b919050565b604080516001808252818301909252600091829190602080830190803683370190505090508260001b81600081518110611b4f57611b4f613b64565b60209081029190910181019190915260408051613a3160f11b9281019290925260006022830181905267536f6c646965727360c01b6030840152916112169101604051602081830303815290604052611ba790613be3565b8360036704a02800a101010160bd1b611d91565b604080516001808252818301909252600091829190602080830190803683370190505090508260001b81600081518110611bf757611bf7613b64565b60209081029190910181019190915260408051613a3160f11b9281019290925260006022830181905267536f6c646965727360c01b6030840152916112169101604051602081830303815290604052611c4f90613be3565b8360026704a02800a101010160bd1b611d91565b604080516001808252818301909252600091602080830190803683370190505090508160001b81600081518110611c9c57611c9c613b64565b60209081029190910181019190915260408051613a3160f11b818401526000602282015267536f6c646965727360c01b60308201528151808203909301835281019052610b8490611cec90613be3565b82612280565b604080516001808252818301909252600091602080830190803683370190505090508260001b81600081518110611d2b57611d2b613b64565b60209081029190910181019190915260408051613a3160f11b818401526000602282015267536f6c646965727360c01b6030820152815180820390930183528101905261047990611d7b90613be3565b826003856040516020016119d391815260200190565b600080611d9c611ad4565b9050306001600160a01b03821603611dc257611dba8686868661231b565b915050611216565b6040517f8c364d590000000000000000000000000000000000000000000000000000000081526001600160a01b03821690638c364d5990611e0d908990899089908990600401613c45565b602060405180830381865afa158015611e2a573d6000803e3d6000fd5b505050506040513d601f19601f82011682018060405250810190611dba9190613c74565b6000611e58611ad4565b9050306001600160a01b03821603611e7c57611e778686868686612351565b611ef7565b6040517f390baae00000000000000000000000000000000000000000000000000000000081526001600160a01b0382169063390baae090611ec99089908990899089908990600401613cdd565b600060405180830381600087803b158015611ee357600080fd5b505af11580156113e4573d6000803e3d6000fd5b505050505050565b6000611f09611ad4565b9050306001600160a01b03821603611f2857611e778686868686612366565b6040517f298314fb0000000000000000000000000000000000000000000000000000000081526001600160a01b0382169063298314fb90611ec99089908990899089908990600401613d24565b6000611f7f611ad4565b9050306001600160a01b03821603611fa457611f9f87878787878761237c565b612026565b6040517fc0a2895a0000000000000000000000000000000000000000000000000000000081526001600160a01b0382169063c0a2895a90611ff3908a908a908a908a908a908a90600401613d75565b600060405180830381600087803b15801561200d57600080fd5b505af1158015612021573d6000803e3d6000fd5b505050505b50505050505050565b604051606083811b6bffffffffffffffffffffffff1916602083015260348201839052906054015b604051602081830303815290604052905092915050565b60006cc00000000060000000000001205b9392505050565b606061209961209484612394565b6123ce565b6120a5612094846123de565b604051602001612057929190613dcb565b606060006120c2611ad4565b9050306001600160a01b038216036120e7576120df858585612412565b91505061207f565b6040517f1e7889770000000000000000000000000000000000000000000000000000000081526001600160a01b03821690631e7889779061213090889088908890600401613dfa565b600060405180830381865afa15801561214d573d6000803e3d6000fd5b505050506040513d6000823e601f3d908101601f191682016040526120df9190810190613e26565b509392505050565b6000818311158015612190575083518211155b6121cc578383836040517f23230fa3000000000000000000000000000000000000000000000000000000008152600401610aab93929190613ed3565b602084016121da8482613b3a565b905060006121e88585613b27565b6fffffffffffffffffffffffffffffffff1660809290921b9190911795945050505050565b6060600061207f836020600061244c565b6122266138d8565b60038251101561223557919050565b5060200190565b600067600000000000006061030b565b606061225a61209483612394565b60405160200161226a9190613ef8565b6040516020818303038152906040529050919050565b600061228a611ad4565b9050306001600160a01b038216036122a65761047983836124c7565b6040517f505a181d0000000000000000000000000000000000000000000000000000000081526001600160a01b0382169063505a181d906122ed9086908690600401613f14565b600060405180830381600087803b15801561230757600080fd5b505af1158015612026573d6000803e3d6000fd5b600061234861232a86866124da565b60ff858116601b0360080285901c166123438587612530565b61256b565b95945050505050565b61154385856123608487612530565b856125bc565b61154385858585856123778b61281b565b612949565b611ef786868686868661238f8d8d612c38565b612c4b565b6040805160038082526080820190925260609160208201838036833701905050905081602082016123c782826060613061565b5050919050565b60608161207f81602060006130ad565b60408051600680825260e082019092526060916020820160c08036833701905050905081602082016123c7828260c0613061565b6060611216612422858585613101565b612445846124308888612c38565b9060ff166028026038011c64ffffffffff1690565b6000613181565b6060600061245a8560801c90565b90506fffffffffffffffffffffffffffffffff8516600085828161248057612480613ae7565b04905060405193506020840160208202810160405281855260005b828110156124bb578451871c82529387019360209091019060010161249b565b50505050509392505050565b610b8482826124d58561281b565b6131a4565b600082826040516020016124ef929190613f2d565b60408051601f1981840301815291905280516020909101207f86425bff6b57326c7859e89024fe4f238ca327a1ae4a230180dd2f0e88aaa7d9189392505050565b600080805b8360ff168110156121755761255760ff601b83900360080287901c1683613b3a565b91508061256381613bc9565b915050612535565b6000602082106125915760208204840193506020828161258d5761258d613ae7565b0691505b508254600882021b602082900380841115612175576001850154600882021c82179150509392505050565b60006125c885856124da565b9050847f8c0b5119d4cec7b284c6b1b39252a03d1e2f2d7451a5895562524c113bb952be8585856040516125fe93929190613f68565b60405180910390a2613a3160f11b857fffff000000000000000000000000000000000000000000000000000000000000161461263a5750612815565b600061264586613464565b905060005b815181101561272457600082828151811061266757612667613b64565b602002602001015190506126936004826affffffffffffffffffffff191661354490919063ffffffff16565b15612711576040517f964f667d000000000000000000000000000000000000000000000000000000008152606082901c9063964f667d906126de908b908b908b908b90600401613fa5565b600060405180830381600087803b1580156126f857600080fd5b505af115801561270c573d6000803e3d6000fd5b505050505b508061271c81613bc9565b91505061264a565b50612738828565ffffffffffff1685613562565b60005b815181101561202657600082828151811061275857612758613b64565b602002602001015190506127846008826affffffffffffffffffffff191661354490919063ffffffff16565b15612802576040517fa8ba8721000000000000000000000000000000000000000000000000000000008152606082901c9063a8ba8721906127cf908b908b908b908b90600401613fa5565b600060405180830381600087803b1580156127e957600080fd5b505af11580156127fd573d6000803e3d6000fd5b505050505b508061280d81613bc9565b91505061273b565b50505050565b60408051613a3160f11b60208201527f73746f726500000000000000000000000000000000000000000000000000000060228201527f5461626c6573000000000000000000000000000000000000000000000000000060308201526000910160405160208183030381529060405261289290613be3565b82036128be57507e60030220202000000000000000000000000000000000000000000000000000919050565b60408051613a3160f11b60208201527f73746f726500000000000000000000000000000000000000000000000000000060228201527f5461626c65730000000000000000000000000000000000000000000000000000603082015261030b91612940910160405160208183030381529060405261293a90613be3565b84613572565b6020600061256b565b857f8dbb3a9672eebfd3773e72dd9c102393436816d832c7ba9e1e1ac8fcadcac7a98686868660405161297f9493929190613fde565b60405180910390a2613a3160f11b867fffff0000000000000000000000000000000000000000000000000000000000001603611ef75760006129c087613464565b905060005b8151811015612aa35760008282815181106129e2576129e2613b64565b60200260200101519050612a0e6001826affffffffffffffffffffff191661354490919063ffffffff16565b15612a90576040517f57066c9c000000000000000000000000000000000000000000000000000000008152606082901c906357066c9c90612a5d908c908c908c908c908c908c9060040161401d565b600060405180830381600087803b158015612a7757600080fd5b505af1158015612a8b573d6000803e3d6000fd5b505050505b5080612a9b81613bc9565b9150506129c5565b506000612ab088886124da565b90506000602087019050612ac8826000838a5161358e565b6000612ad38561364e565b1115612b57576000612ae58a8a61368b565b878155905060208601915060008060005b612aff8861364e565b8160ff161015612b5257612b148d8d83613101565b9250612b2f8a8260ff166028026038011c64ffffffffff1690565b9150612b3e836000878561358e565b612b488286613b3a565b9450600101612af6565b505050505b60005b83518110156113e4576000848281518110612b7757612b77613b64565b60200260200101519050612ba36002826affffffffffffffffffffff191661354490919063ffffffff16565b15612c25576040517f5b28cdaf000000000000000000000000000000000000000000000000000000008152606082901c90635b28cdaf90612bf2908e908e908e908e908e908e9060040161401d565b600060405180830381600087803b158015612c0c57600080fd5b505af1158015612c20573d6000803e3d6000fd5b505050505b5080612c3081613bc9565b915050612b5a565b600061207f612c47848461368b565b5490565b613a3160f11b877fffff0000000000000000000000000000000000000000000000000000000000001614612cd557613a3160f11b8788604051602001612c9391815260200190565b60408051601f19818403018152908290527f31b46683000000000000000000000000000000000000000000000000000000008252610aab939291600401614076565b6000612cf0828760ff166028026038011c64ffffffffff1690565b9050600083518564ffffffffff1683612d099190613b27565b612d139190613b3a565b9050808214158015612d35575081612d2b86886140b7565b64ffffffffff1614155b15612d85576040517fa65010b400000000000000000000000000000000000000000000000000000000815264ffffffffff8088166004830152808716602483015283166044820152606401610aab565b818664ffffffffff161115612dd6576040517f7e8578d30000000000000000000000000000000000000000000000000000000081526004810183905264ffffffffff87166024820152604401610aab565b6000612de38489846136e1565b905064ffffffffff871660005b8960ff168160ff161015612e2357612e17868260ff166028026038011c64ffffffffff1690565b90910190600101612df0565b508a7faa63765a776145e5e6492f471ae097dfed11cd57a61bc2679dd43180422385b48b838a868b604051612e5c9594939291906140d5565b60405180910390a2506000612e708b613464565b905060005b8151811015612f45576000828281518110612e9257612e92613b64565b60200260200101519050612ebe6010826affffffffffffffffffffff191661354490919063ffffffff16565b15612f3257606081901c6001600160a01b03166355eb5a288e8e8e8e8e8a8f6040518863ffffffff1660e01b8152600401612eff979695949392919061411b565b600060405180830381600087803b158015612f1957600080fd5b505af1158015612f2d573d6000803e3d6000fd5b505050505b5080612f3d81613bc9565b915050612e75565b50828414612f5e576000612f598c8c61368b565b839055505b6000612f6b8c8c8c613101565b9050612f7f818a64ffffffffff1689613562565b5060005b8151811015613053576000828281518110612fa057612fa0613b64565b60200260200101519050612fcc6020826affffffffffffffffffffff191661354490919063ffffffff16565b1561304057606081901c6001600160a01b031663635845338e8e8e8e8e8a8f6040518863ffffffff1660e01b815260040161300d979695949392919061411b565b600060405180830381600087803b15801561302757600080fd5b505af115801561303b573d6000803e3d6000fd5b505050505b508061304b81613bc9565b915050612f83565b505050505050505050505050565b5b60208110613081578251825260209283019290910190601f1901613062565b8060000361308e57505050565b6000600019600883021c19905080198351168185511617835250505050565b825160609060006130be8583613b4d565b9050604051925060208301601f19603f83860101166040528184526000602088015b848210156124bb578051871b835291870191600191909101906020016130e0565b60008383604051602001613116929190613f2d565b604051602081830303815290604052805190602001208260f81b7effffffffffffffffffffffffffffffffffffffffffffffffffffffffffffff19167f3b4102da22e32d82fc925482184f16c09fd4281692720b87d124aef6da48a0f1181860001c90509392505050565b60405160208101601f19603f8584010116604052838252612175858585846137af565b827f0e1f72f429eb97e64878619984a91e687ae91610348b9ff4216782cc96e49d07836040516131d49190614179565b60405180910390a2613a3160f11b837fffff000000000000000000000000000000000000000000000000000000000000161461320f57505050565b600061321a84613464565b905060005b81518110156132f757600082828151811061323c5761323c613b64565b602002602001015190506132686040826affffffffffffffffffffff191661354490919063ffffffff16565b156132e4576040517f9faeaf45000000000000000000000000000000000000000000000000000000008152606082901c90639faeaf45906132b19089908990899060040161418c565b600060405180830381600087803b1580156132cb57600080fd5b505af11580156132df573d6000803e3d6000fd5b505050505b50806132ef81613bc9565b91505061321f565b50600061330485856124da565b905061335d81600061331586613867565b67ffffffffffffffff81111561332d5761332d613a2e565b6040519080825280601f01601f191660200182016040528015613357576020820181803683370190505b50613562565b60006133688461364e565b111561338957600061337a868661368b565b905061338781602061388a565b505b60005b8251811015611ef75760008382815181106133a9576133a9613b64565b602002602001015190506133d56080826affffffffffffffffffffff191661354490919063ffffffff16565b15613451576040517f83b5c95b000000000000000000000000000000000000000000000000000000008152606082901c906383b5c95b9061341e908a908a908a9060040161418c565b600060405180830381600087803b15801561343857600080fd5b505af115801561344c573d6000803e3d6000fd5b505050505b508061345c81613bc9565b91505061338c565b6040805160018082528183019092526060916000919060208083019080368337019050509050828160008151811061349e5761349e613b64565b60209081029190910181019190915260408051613a3160f11b818401527f73746f726500000000000000000000000000000000000000000000000000000060228201527f53746f7265486f6f6b73000000000000000000000000000000000000000000006030820152815180820390930183528101905260009061352d9061352590613be3565b836000612412565b905061121661353f826000845161217d565b6138c7565b60008160ff16826135558560581c90565b1660ff1614905092915050565b610479838360208401845161358e565b60408051602081018490529081018290526000906060016124ef565b821561360857602083106135b8576020830484019350602083816135b4576135b4613ae7565b0692505b82156136085760208390036000600019600884021c1990506008850281811c91508451811c90508119875416828216178755508183116135f9575050612815565b50600194909401939182019190035b5b6020811061362a5781518455600190930192602090910190601f1901613609565b8015612815576000600019600883021c198554845182169119161785555050505050565b6000600860018061366160026020613b27565b61366b9190613b27565b6136759190613b27565b61367f9190613b4d565b8260ff911c1692915050565b600082826040516020016136a0929190613f2d565b60408051601f1981840301815291905280516020909101207f14e2fcc58e58e68ec7edc30c8d50dccc3ce2714a623ec81f46b6a63922d76569189392505050565b600064ffffffffff821115613725576040517f4767058800000000000000000000000000000000000000000000000000000000815260048101839052602401610aab565b8366ffffffffffffff811660ff851660280260380182901c64ffffffffff16808510613757578085038201915061375f565b848103820391505b5064ffffffffff6038602860ff8816020181811b197fffffffffffffffffffffffffffffffffffffffffffffffffff000000000000009490941690921792909216918416901b1790509392505050565b811561382157602082106137d9576020820484019350602082816137d5576137d5613ae7565b0691505b81156138215760208290036000600019600883021c1990508554600885021b811984511682821617845250818511613812575050612815565b50600194909401939283900392015b5b602083106138435783548152600190930192601f1990920191602001613822565b8215612815576000600019600885021c198251865482169119161782525050505050565b6000600861387760026020613b27565b6138819190613b4d565b9190911c919050565b6000602061389983601f613b3a565b6138a391906141b5565b6138ad9084613b3a565b90505b8083101561047957600083556001830192506138b0565b6060600061207f836015600061244c565b60405180606001604052806003906020820280368337509192915050565b60006020828403121561390857600080fd5b81357fffffffff000000000000000000000000000000000000000000000000000000008116811461207f57600080fd5b80356001600160a01b0381168114611b0e57600080fd5b60008060008060008060c0878903121561396857600080fd5b8635955061397860208801613938565b95989597505050506040840135936060810135936080820135935060a0909101359150565b6000806000606084860312156139b257600080fd5b505081359360208301359350604090920135919050565b600080604083850312156139dc57600080fd5b50508035926020909101359150565b6000602082840312156139fd57600080fd5b5035919050565b60008060408385031215613a1757600080fd5b613a2083613938565b946020939093013593505050565b634e487b7160e01b600052604160045260246000fd5b600082601f830112613a5557600080fd5b6040516060810181811067ffffffffffffffff82111715613a7857613a78613a2e565b604052806060840185811115613a8d57600080fd5b845b81811015613aa7578035835260209283019201613a8f565b509195945050505050565b60008060c08385031215613ac557600080fd5b613acf8484613a44565b9150613ade8460608501613a44565b90509250929050565b634e487b7160e01b600052601260045260246000fd5b600082613b0c57613b0c613ae7565b500690565b634e487b7160e01b600052601160045260246000fd5b8181038181111561030b5761030b613b11565b8082018082111561030b5761030b613b11565b808202811582820484141761030b5761030b613b11565b634e487b7160e01b600052603260045260246000fd5b8082018281126000831280158216821582161715613b9a57613b9a613b11565b505092915050565b8181036000831280158383131683831282161715613bc257613bc2613b11565b5092915050565b60006000198203613bdc57613bdc613b11565b5060010190565b80516020808301519190811015613c04576000198160200360031b1b821691505b50919050565b600081518084526020808501945080840160005b83811015613c3a57815187529582019590820190600101613c1e565b509495945050505050565b848152608060208201526000613c5e6080830186613c0a565b60ff949094166040830152506060015292915050565b600060208284031215613c8657600080fd5b5051919050565b60005b83811015613ca8578181015183820152602001613c90565b50506000910152565b60008151808452613cc9816020860160208601613c8d565b601f01601f19169290920160200192915050565b85815260a060208201526000613cf660a0830187613c0a565b60ff861660408401528281036060840152613d118186613cb1565b9150508260808301529695505050505050565b85815260a060208201526000613d3d60a0830187613c0a565b8281036040840152613d4f8187613cb1565b90508460608401528281036080840152613d698185613cb1565b98975050505050505050565b86815260c060208201526000613d8e60c0830188613c0a565b60ff8716604084015264ffffffffff86811660608501528516608084015282810360a0840152613dbe8185613cb1565b9998505050505050505050565b60008351613ddd818460208801613c8d565b835190830190613df1818360208801613c8d565b01949350505050565b838152606060208201526000613e136060830185613c0a565b905060ff83166040830152949350505050565b600060208284031215613e3857600080fd5b815167ffffffffffffffff80821115613e5057600080fd5b818401915084601f830112613e6457600080fd5b815181811115613e7657613e76613a2e565b604051601f8201601f19908116603f01168101908382118183101715613e9e57613e9e613a2e565b81604052828152876020848701011115613eb757600080fd5b613ec8836020830160208801613c8d565b979650505050505050565b606081526000613ee66060830186613cb1565b60208301949094525060400152919050565b60008251613f0a818460208701613c8d565b9190910192915050565b8281526040602082015260006112166040830184613c0a565b82815260006020808301845182860160005b82811015613f5b57815184529284019290840190600101613f3f565b5091979650505050505050565b606081526000613f7b6060830186613c0a565b65ffffffffffff851660208401528281036040840152613f9b8185613cb1565b9695505050505050565b848152608060208201526000613fbe6080830186613c0a565b65ffffffffffff851660408401528281036060840152613ec88185613cb1565b608081526000613ff16080830187613c0a565b82810360208401526140038187613cb1565b90508460408401528281036060840152613ec88185613cb1565b86815260c06020820152600061403660c0830188613c0a565b82810360408401526140488188613cb1565b905085606084015282810360808401526140628186613cb1565b9150508260a0830152979650505050505050565b7fffff000000000000000000000000000000000000000000000000000000000000841681528260208201526060604082015260006123486060830184613cb1565b64ffffffffff818116838216019080821115613bc257613bc2613b11565b60a0815260006140e860a0830188613c0a565b65ffffffffffff8716602084015264ffffffffff861660408401528460608401528281036080840152613d698185613cb1565b87815260e06020820152600061413460e0830189613c0a565b60ff8816604084015264ffffffffff87811660608501528616608084015260a0830185905282810360c084015261416b8185613cb1565b9a9950505050505050505050565b60208152600061207f6020830184613c0a565b8381526060602082015260006141a56060830185613c0a565b9050826040830152949350505050565b6000826141c4576141c4613ae7565b50049056fea264697066735822122022c128068cdab875a6d9a2253094ffa08b289df26da49f01b077ce3de88f995564736f6c63430008150033",
    "linkReferences": {}
  },
  "methodIdentifiers": {
    "_msgSender()": "119df25f",
    "_msgValue()": "45ec9354",
    "_world()": "e1af802c",
    "buyCity(uint256)": "6bec454a",
    "checkAdjacent(int256[3],int256[3])": "bee30025",
    "checkTerritoryClaim(uint256)": "c56f2e70",
    "createSoldier(uint256,address,uint256,uint256,uint256,uint256)": "13b4d654",
    "moveSoldier(uint256,uint256)": "6b6dee37",
    "pseudoConstructor()": "2d97d037",
    "setCityOwner(address,uint256)": "9d7efbea",
    "setSector(uint256,uint256,uint256)": "1b043da1",
    "soldierAttack(uint256,uint256)": "f1fa0b31",
    "supportsInterface(bytes4)": "01ffc9a7"
  },
  "id": 81
}