{
  "abi": [
    {
      "inputs": [],
      "stateMutability": "nonpayable",
      "type": "constructor"
    },
    {
      "inputs": [
        {
          "internalType": "bytes",
          "name": "data",
          "type": "bytes"
        },
        {
          "internalType": "uint256",
          "name": "start",
          "type": "uint256"
        },
        {
          "internalType": "uint256",
          "name": "end",
          "type": "uint256"
        }
      ],
      "name": "Slice_OutOfBounds",
      "type": "error"
    },
    {
      "anonymous": false,
      "inputs": [
        {
          "indexed": true,
          "internalType": "ResourceId",
          "name": "tableId",
          "type": "bytes32"
        },
        {
          "indexed": false,
          "internalType": "bytes32[]",
          "name": "keyTuple",
          "type": "bytes32[]"
        },
        {
          "indexed": false,
          "internalType": "bytes",
          "name": "staticData",
          "type": "bytes"
        },
        {
          "indexed": false,
          "internalType": "PackedCounter",
          "name": "encodedLengths",
          "type": "bytes32"
        },
        {
          "indexed": false,
          "internalType": "bytes",
          "name": "dynamicData",
          "type": "bytes"
        }
      ],
      "name": "Store_SetRecord",
      "type": "event"
    },
    {
      "anonymous": false,
      "inputs": [
        {
          "indexed": true,
          "internalType": "ResourceId",
          "name": "tableId",
          "type": "bytes32"
        },
        {
          "indexed": false,
          "internalType": "bytes32[]",
          "name": "keyTuple",
          "type": "bytes32[]"
        },
        {
          "indexed": false,
          "internalType": "uint48",
          "name": "start",
          "type": "uint48"
        },
        {
          "indexed": false,
          "internalType": "bytes",
          "name": "data",
          "type": "bytes"
        }
      ],
      "name": "Store_SpliceStaticData",
      "type": "event"
    },
    {
      "anonymous": false,
      "inputs": [
        {
          "indexed": false,
          "internalType": "uint256",
          "name": "cityId",
          "type": "uint256"
        },
        {
          "indexed": false,
          "internalType": "address",
          "name": "purchaser",
          "type": "address"
        },
        {
          "indexed": false,
          "internalType": "uint256",
          "name": "cost",
          "type": "uint256"
        }
      ],
      "name": "cityBought",
      "type": "event"
    },
    {
      "anonymous": false,
      "inputs": [
        {
          "indexed": false,
          "internalType": "uint256",
          "name": "soldierId",
          "type": "uint256"
        },
        {
          "indexed": false,
          "internalType": "address",
          "name": "allegiance",
          "type": "address"
        },
        {
          "indexed": false,
          "internalType": "uint256",
          "name": "tileId",
          "type": "uint256"
        },
        {
          "indexed": false,
          "internalType": "uint256",
          "name": "attack",
          "type": "uint256"
        },
        {
          "indexed": false,
          "internalType": "uint256",
          "name": "defense",
          "type": "uint256"
        },
        {
          "indexed": false,
          "internalType": "uint256",
          "name": "mobility",
          "type": "uint256"
        }
      ],
      "name": "soldierCreated",
      "type": "event"
    },
    {
      "inputs": [
        {
          "internalType": "uint256",
          "name": "cityId",
          "type": "uint256"
        }
      ],
      "name": "buyCity",
      "outputs": [],
      "stateMutability": "payable",
      "type": "function"
    },
    {
      "inputs": [
        {
          "internalType": "int256[3]",
          "name": "tileA",
          "type": "int256[3]"
        },
        {
          "internalType": "int256[3]",
          "name": "tileB",
          "type": "int256[3]"
        }
      ],
      "name": "checkAdjacent",
      "outputs": [
        {
          "internalType": "bool",
          "name": "",
          "type": "bool"
        }
      ],
      "stateMutability": "pure",
      "type": "function"
    }
  ],
  "bytecode": {
    "object": "0x60806040523480156200001157600080fd5b506200007860008060006040518060600160405280600081526020016000815260200160008152506040518060c00160405280600081526020016000815260200160008152602001600181526020016001815260200160018152506200041760201b60201c565b620000df6007600080604051806060016040528060028152602001600181526020016002198152506040518060c00160405280600081526020016000815260200160008152602001600181526020016001815260200160018152506200041760201b60201c565b60005b60028110156200041057600062000105620000ff836007620013fc565b620004f1565b90506200018862000118836007620013fc565b6200012590600162001416565b6000806040518060600160405280866000600381106200014957620001496200142c565b60200201516200015b90600162001442565b81526020016001878160200201516200017591906200146d565b81526040870151602090910152620005cc565b6200020a62000199836007620013fc565b620001a690600262001416565b600080604051806060016040528086600060038110620001ca57620001ca6200142c565b6020020151620001dc90600162001442565b81526020878101519082015260400160018760025b60200201516200020291906200146d565b9052620005cc565b6200028e6200021b836007620013fc565b6200022890600362001416565b6000806040518060600160405280866000600381106200024c576200024c6200142c565b60200201518152602001866001600381106200026c576200026c6200142c565b60200201516200027e90600162001442565b81526020016001876002620001f1565b620002fd6200029f836007620013fc565b620002ac90600462001416565b6000806040518060600160405280600187600060038110620002d257620002d26200142c565b6020020151620002e391906200146d565b815260200186600160200201516200017590600162001442565b620003776200030e836007620013fc565b6200031b90600562001416565b60008060405180606001604052806001876000600381106200034157620003416200142c565b60200201516200035291906200146d565b8152602087810151908201526040018660025b60200201516200020290600162001442565b620003fa62000388836007620013fc565b6200039590600662001416565b600080604051806060016040528086600060038110620003b957620003b96200142c565b60200201518152602001600187600160038110620003db57620003db6200142c565b6020020151620003ec91906200146d565b815260200186600262000365565b5080620004078162001497565b915050620000e2565b5062001844565b600062000425858562000681565b90506000620004358484620006bc565b90506000620004458585620006d4565b60408051600180825281830190925291925060009190602080830190803683370190505090508860001b816000815181106200048557620004856200142c565b60209081029190910181019190915260408051613a3160f11b92810192909252600060228301526543697469657360d01b6030830152620004e691015b604051602081830303815290604052620004dc90620014c9565b828686866200070d565b505050505050505050565b620004fb620013c8565b604080516001808252818301909252600091602080830190803683370190505090508260001b816000815181106200053757620005376200142c565b60209081029190910181019190915260408051613a3160f11b928101929092526000602283018190526543697469657360d01b6030840152916200059991016040516020818303038152906040526200059090620014c9565b836000620007b4565b9050620005c4620005be620005b883600085516200086d60201b60201c565b620008ec565b620008fe565b949350505050565b6000620005da848462000681565b90506000620005e9836200091f565b90506000620005f88462000930565b60408051600180825281830190925291925060009190602080830190803683370190505090508760001b816000815181106200063857620006386200142c565b60209081029190910181019190915260408051613a3160f11b92810192909252600060228301526204d61760ec1b6030830152620006779101620004c2565b5050505050505050565b604051606083811b6001600160601b031916602083015260348201839052906054015b60405160208183030381529060405290505b92915050565b60006cc00000000060000000000001205b9392505050565b6060620006eb620006e58462000969565b620009a5565b620006fa620006e584620009b7565b604051602001620006a492919062001517565b600062000719620009ed565b9050306001600160a01b0382160362000741576200073b868686868662000a2d565b620007ac565b60405163298314fb60e01b81526001600160a01b0382169063298314fb90620007779089908990899089908990600401620015b5565b600060405180830381600087803b1580156200079257600080fd5b505af1158015620007a7573d6000803e3d6000fd5b505050505b505050505050565b60606000620007c2620009ed565b9050306001600160a01b03821603620007eb57620007e285858562000a4e565b915050620006cd565b604051631e78897760e01b81526001600160a01b03821690631e788977906200081d908890889088906004016200160c565b600060405180830381865afa1580156200083b573d6000803e3d6000fd5b505050506040513d6000823e601f3d908101601f19168201604052620007e291908101906200163a565b509392505050565b600081831115801562000881575083518211155b620008b0578383836040516323230fa360e01b8152600401620008a793929190620016f2565b60405180910390fd5b60208401620008c0848262001416565b90506000620008d0858562001719565b6001600160801b031660809290921b9190911795945050505050565b60606000620006cd8360208362000a8f565b62000908620013c8565b6003825110156200091857919050565b5060200190565b6000676000000000000060620006b6565b606062000941620006e58362000969565b6040516020016200095391906200172f565b6040516020818303038152906040529050919050565b6040805160038082526080820190925260609160208201838036833701905050905081602082016200099e8282606062000b07565b5050919050565b606081620006cd816020600062000b56565b60408051600680825260e082019092526060916020820160c08036833701905050905081602082016200099e828260c062000b07565b7f629a4c26e296b22a8e0856e9f6ecb2d1008d7e00081111962cd175fa7488e175546000906001600160a01b03168062000a28573391505090565b919050565b62000a47858585858562000a418562000bae565b62000c71565b5050505050565b6060620005c462000a6185858562000f3d565b62000a878462000a72888862000fa7565b9060ff166028026038011c64ffffffffff1690565b600062000fbd565b6060600062000a9e8560801c90565b90506001600160801b038516600085828162000abe5762000abe6200174d565b04905060405193506020840160208202810160405281855260005b8281101562000afb578451871c82529387019360209091019060010162000ad9565b50505050509392505050565b5b6020811062000b29578251825260209283019290910190601f190162000b08565b8060000362000b3757505050565b6000600019600883021c19905080198351168185511617835250505050565b8251606090600062000b698583620013fc565b9050604051925060208301601f19603f83860101166040528184526000602088015b8482101562000afb578051871b8352918701916001919091019060200162000b8b565b60408051613a3160f11b60208201526473746f726560d81b6022820152655461626c657360d01b60308201526000910160405160208183030381529060405262000bf890620014c9565b820362000c0f57506503001811010160cd1b919050565b60408051613a3160f11b60208201526473746f726560d81b6022820152655461626c657360d01b6030820152620006b69162000c67910160405160208183030381529060405262000c6090620014c9565b8462000fe2565b602060006200103b565b857f8dbb3a9672eebfd3773e72dd9c102393436816d832c7ba9e1e1ac8fcadcac7a98686868660405162000ca9949392919062001763565b60405180910390a2613a3160f11b866001600160f01b03191603620007ac57600062000cd58762001091565b905060005b815181101562000da357600082828151811062000cfb5762000cfb6200142c565b6020908102919091010151905062000d1f6001600160581b03198216600162001157565b1562000d8d576040516315c19b2760e21b8152606082901c906357066c9c9062000d58908c908c908c908c908c908c90600401620017a8565b600060405180830381600087803b15801562000d7357600080fd5b505af115801562000d88573d6000803e3d6000fd5b505050505b508062000d9a8162001497565b91505062000cda565b50600062000db2888862001176565b9050600060208701905062000dd2826000838a516200118d60201b60201c565b600062000ddf8562001256565b111562000e7157600062000df48a8a6200129b565b878155905060208601915060008060005b62000e108862001256565b8160ff16101562000e6c5762000e288d8d8362000f3d565b925062000e448a8260ff166028026038011c64ffffffffff1690565b915062000e5583600087856200118d565b62000e61828662001416565b945060010162000e05565b505050505b60005b8351811015620007a757600084828151811062000e955762000e956200142c565b6020908102919091010151905062000eb96001600160581b03198216600262001157565b1562000f2757604051635b28cdaf60e01b8152606082901c90635b28cdaf9062000ef2908e908e908e908e908e908e90600401620017a8565b600060405180830381600087803b15801562000f0d57600080fd5b505af115801562000f22573d6000803e3d6000fd5b505050505b508062000f348162001497565b91505062000e74565b6000838360405160200162000f5492919062001807565b604051602081830303815290604052805190602001208260f81b6001600160f81b0319167f3b4102da22e32d82fc925482184f16c09fd4281692720b87d124aef6da48a0f1181860001c90509392505050565b6000620006cd62000fb984846200129b565b5490565b60405160208101601f19603f85840101166040528382526200086585858584620012f3565b60408051602081018490529081018290526000906060015b60408051601f1981840301815291905280516020909101207f86425bff6b57326c7859e89024fe4f238ca327a1ae4a230180dd2f0e88aaa7d9189392505050565b60006020821062001065576020820484019350602082816200106157620010616200174d565b0691505b508254600882021b60208290038084111562000865576001850154600882021c82179150509392505050565b60408051600180825281830190925260609160009190602080830190803683370190505090508281600081518110620010ce57620010ce6200142c565b60209081029190910181019190915260408051613a3160f11b818401526473746f726560d81b60228201526953746f7265486f6f6b7360b01b6030820152815180820390930183528101905260009062001136906200112d90620014c9565b83600062000a4e565b9050620005c46200115182600084516200086d60201b60201c565b620013b6565b600060ff821682620011698560581c90565b1660ff1614905092915050565b6000828260405160200162000ffa92919062001807565b82156200120f5760208310620011bc57602083048401935060208381620011b857620011b86200174d565b0692505b82156200120f5760208390036000600019600884021c1990506008850281811c91508451811c90508119875416828216178755508183116200120057505062001250565b50600194909401939182019190035b5b60208110620012335781518455600190930192602090910190601f190162001210565b8015620012505783548251600019600884021c9182169119161784555b50505050565b600060086001806200126b6002602062001719565b62001277919062001719565b62001283919062001719565b6200128f9190620013fc565b8260ff911c1692915050565b60008282604051602001620012b292919062001807565b60408051601f1981840301815291905280516020909101207f14e2fcc58e58e68ec7edc30c8d50dccc3ce2714a623ec81f46b6a63922d76569189392505050565b81156200136d576020821062001322576020820484019350602082816200131e576200131e6200174d565b0691505b81156200136d5760208290036000600019600883021c1990508554600885021b8119845116828216178452508185116200135e57505062001250565b50600194909401939283900392015b5b60208310620013915783548152600190930192601f19909201916020016200136e565b821562001250576000600019600885021c198251865482169119161782525050505050565b60606000620006cd8360158362000a8f565b60405180606001604052806003906020820280368337509192915050565b634e487b7160e01b600052601160045260246000fd5b8082028115828204841417620006b657620006b6620013e6565b80820180821115620006b657620006b6620013e6565b634e487b7160e01b600052603260045260246000fd5b8082018281126000831280158216821582161715620014655762001465620013e6565b505092915050565b8181036000831280158383131683831282161715620014905762001490620013e6565b5092915050565b600060018201620014ac57620014ac620013e6565b5060010190565b634e487b7160e01b600052604160045260246000fd5b80516020808301519190811015620014eb576000198160200360031b1b821691505b50919050565b60005b838110156200150e578181015183820152602001620014f4565b50506000910152565b600083516200152b818460208801620014f1565b83519083019062001541818360208801620014f1565b01949350505050565b600081518084526020808501945080840160005b838110156200157c578151875295820195908201906001016200155e565b509495945050505050565b60008151808452620015a1816020860160208601620014f1565b601f01601f19169290920160200192915050565b85815260a060208201526000620015d060a08301876200154a565b8281036040840152620015e4818762001587565b9050846060840152828103608084015262001600818562001587565b98975050505050505050565b8381526060602082015260006200162760608301856200154a565b905060ff83166040830152949350505050565b6000602082840312156200164d57600080fd5b81516001600160401b03808211156200166557600080fd5b818401915084601f8301126200167a57600080fd5b8151818111156200168f576200168f620014b3565b604051601f8201601f19908116603f01168101908382118183101715620016ba57620016ba620014b3565b81604052828152876020848701011115620016d457600080fd5b620016e7836020830160208801620014f1565b979650505050505050565b60608152600062001707606083018662001587565b60208301949094525060400152919050565b81810381811115620006b657620006b6620013e6565b6000825162001743818460208701620014f1565b9190910192915050565b634e487b7160e01b600052601260045260246000fd5b6080815260006200177860808301876200154a565b82810360208401526200178c818762001587565b90508460408401528281036060840152620016e7818562001587565b86815260c060208201526000620017c360c08301886200154a565b8281036040840152620017d7818862001587565b90508560608401528281036080840152620017f3818662001587565b9150508260a0830152979650505050505050565b82815260006020808301845182860160005b82811015620018375781518452928401929084019060010162001819565b5091979650505050505050565b61139f80620018546000396000f3fe6080604052600436106100295760003560e01c80636bec454a1461002e578063bee3002514610043575b600080fd5b61004161003c366004610fb6565b610077565b005b34801561004f57600080fd5b5061006361005e36600461104b565b6101bf565b604051901515815260200160405180910390f35b6509184e72a0003410156100ec576040517f08c379a000000000000000000000000000000000000000000000000000000000815260206004820152601a60248201527f4e6f7420302e303030303120657468206f72206772656174657200000000000060448201526064015b60405180910390fd5b60006100f782610342565b73ffffffffffffffffffffffffffffffffffffffff1614610174576040517f08c379a000000000000000000000000000000000000000000000000000000000815260206004820152601760248201527f4369747920697320616c726561647920636c61696d656400000000000000000060448201526064016100e3565b61017e813361041e565b60408051828152336020820152348183015290517f21b2b7e4681e982b24ba6a9742e1202ef381e8100fe8f98a6f70c5895ad490a19181900360600190a150565b80518251600091906101d29060016110ac565b1480156101f25750602080830151908401516101f0906001906110d4565b145b156101ff5750600161033c565b8151835161020e9060016110ac565b14801561022e57506040808301519084015161022c906001906110d4565b145b1561023b5750600161033c565b602080830151908401516102509060016110ac565b14801561027057506040808301519084015161026e906001906110d4565b145b1561027d5750600161033c565b8151835161028d906001906110d4565b1480156102ac5750602080830151908401516102aa9060016110ac565b145b156102b95750600161033c565b815183516102c9906001906110d4565b1480156102e85750604080830151908401516102e69060016110ac565b145b156102f55750600161033c565b6020808301519084015161030b906001906110d4565b14801561032b575060408083015190840151610329906001906110d4565b145b156103385750600161033c565b5060005b92915050565b604080516001808252818301909252600091829190602080830190803683370190505090508260001b8160008151811061037e5761037e611080565b60209081029190910181019190915260408051613a3160f11b928101929092526000602283018190527f436974696573000000000000000000000000000000000000000000000000000060308401529161041391016040516020818303038152906040526103eb906110fb565b8360007e3402021420000000000000000000000000000000000000000000000000000061052d565b60601c949350505050565b604080516001808252818301909252600091602080830190803683370190505090508260001b8160008151811061045757610457611080565b60209081029190910181019190915260408051613a3160f11b81840152600060228201527f436974696573000000000000000000000000000000000000000000000000000060308201528151808203909301835281019052610528906104bc906110fb565b6040517fffffffffffffffffffffffffffffffffffffffff000000000000000000000000606086901b166020820152839060009060340160408051601f198184030181529190527e3402021420000000000000000000000000000000000000000000000000000061060c565b505050565b6000806105386106dc565b90503073ffffffffffffffffffffffffffffffffffffffff82160361056b5761056386868686610728565b915050610604565b6040517f8c364d5900000000000000000000000000000000000000000000000000000000815273ffffffffffffffffffffffffffffffffffffffff821690638c364d59906105c390899089908990899060040161115d565b602060405180830381865afa1580156105e0573d6000803e3d6000fd5b505050506040513d601f19601f82011682018060405250810190610563919061118c565b949350505050565b60006106166106dc565b90503073ffffffffffffffffffffffffffffffffffffffff82160361064757610642868686868661075e565b6106d4565b6040517f390baae000000000000000000000000000000000000000000000000000000000815273ffffffffffffffffffffffffffffffffffffffff82169063390baae0906106a190899089908990899089906004016111eb565b600060405180830381600087803b1580156106bb57600080fd5b505af11580156106cf573d6000803e3d6000fd5b505050505b505050505050565b7f629a4c26e296b22a8e0856e9f6ecb2d1008d7e00081111962cd175fa7488e1755460009073ffffffffffffffffffffffffffffffffffffffff1680610723573391505090565b919050565b6000610755610737868661077a565b60ff858116601b0360080285901c1661075085876107d0565b610813565b95945050505050565b610773858561076d84876107d0565b85610864565b5050505050565b6000828260405160200161078f929190611232565b60408051601f1981840301815291905280516020909101207f86425bff6b57326c7859e89024fe4f238ca327a1ae4a230180dd2f0e88aaa7d9189392505050565b600080805b8360ff1681101561080b576107f760ff601b83900360080287901c168361126d565b91508061080381611280565b9150506107d5565b509392505050565b600060208210610839576020820484019350602082816108355761083561129a565b0691505b508254600882021b60208290038084111561080b576001850154600882021c82179150509392505050565b6000610870858561077a565b9050847f8c0b5119d4cec7b284c6b1b39252a03d1e2f2d7451a5895562524c113bb952be8585856040516108a6939291906112b0565b60405180910390a2613a3160f11b857fffff00000000000000000000000000000000000000000000000000000000000016146108e25750610ac1565b60006108ed86610ac7565b905060005b81518110156109cc57600082828151811061090f5761090f611080565b6020026020010151905061093b6004826affffffffffffffffffffff1916610ba790919063ffffffff16565b156109b9576040517f964f667d000000000000000000000000000000000000000000000000000000008152606082901c9063964f667d90610986908b908b908b908b906004016112ed565b600060405180830381600087803b1580156109a057600080fd5b505af11580156109b4573d6000803e3d6000fd5b505050505b50806109c481611280565b9150506108f2565b506109e0828565ffffffffffff1685610bc5565b60005b8151811015610abd576000828281518110610a0057610a00611080565b60200260200101519050610a2c6008826affffffffffffffffffffff1916610ba790919063ffffffff16565b15610aaa576040517fa8ba8721000000000000000000000000000000000000000000000000000000008152606082901c9063a8ba872190610a77908b908b908b908b906004016112ed565b600060405180830381600087803b158015610a9157600080fd5b505af1158015610aa5573d6000803e3d6000fd5b505050505b5080610ab581611280565b9150506109e3565b5050505b50505050565b60408051600180825281830190925260609160009190602080830190803683370190505090508281600081518110610b0157610b01611080565b60209081029190910181019190915260408051613a3160f11b818401527f73746f726500000000000000000000000000000000000000000000000000000060228201527f53746f7265486f6f6b730000000000000000000000000000000000000000000060308201528151808203909301835281019052600090610b9090610b88906110fb565b836000610bd5565b9050610604610ba28260008451610c0f565b610c9f565b60008160ff1682610bb88560581c90565b1660ff1614905092915050565b6105288383602084018451610cb7565b6060610604610be5858585610d77565b610c0884610bf38888610df7565b9060ff166028026038011c64ffffffffff1690565b6000610e0a565b6000818311158015610c22575083518211155b610c5e578383836040517f23230fa30000000000000000000000000000000000000000000000000000000081526004016100e393929190611331565b60208401610c6c848261126d565b90506000610c7a8585611356565b6fffffffffffffffffffffffffffffffff1660809290921b9190911795945050505050565b60606000610cb08360156000610e2d565b9392505050565b8215610d315760208310610ce157602083048401935060208381610cdd57610cdd61129a565b0692505b8215610d315760208390036000600019600884021c1990506008850281811c91508451811c9050811987541682821617875550818311610d22575050610ac1565b50600194909401939182019190035b5b60208110610d535781518455600190930192602090910190601f1901610d32565b8015610ac1576000600019600883021c198554845182169119161785555050505050565b60008383604051602001610d8c929190611232565b604051602081830303815290604052805190602001208260f81b7effffffffffffffffffffffffffffffffffffffffffffffffffffffffffffff19167f3b4102da22e32d82fc925482184f16c09fd4281692720b87d124aef6da48a0f1181860001c90509392505050565b6000610cb0610e068484610ea8565b5490565b60405160208101601f19603f858401011660405283825261080b85858584610efe565b60606000610e3b8560801c90565b90506fffffffffffffffffffffffffffffffff85166000858281610e6157610e6161129a565b04905060405193506020840160208202810160405281855260005b82811015610e9c578451871c825293870193602090910190600101610e7c565b50505050509392505050565b60008282604051602001610ebd929190611232565b60408051601f1981840301815291905280516020909101207f14e2fcc58e58e68ec7edc30c8d50dccc3ce2714a623ec81f46b6a63922d76569189392505050565b8115610f705760208210610f2857602082048401935060208281610f2457610f2461129a565b0691505b8115610f705760208290036000600019600883021c1990508554600885021b811984511682821617845250818511610f61575050610ac1565b50600194909401939283900392015b5b60208310610f925783548152600190930192601f1990920191602001610f71565b8215610ac1576000600019600885021c198251865482169119161782525050505050565b600060208284031215610fc857600080fd5b5035919050565b600082601f830112610fe057600080fd5b6040516060810181811067ffffffffffffffff8211171561101157634e487b7160e01b600052604160045260246000fd5b60405280606084018581111561102657600080fd5b845b81811015611040578035835260209283019201611028565b509195945050505050565b60008060c0838503121561105e57600080fd5b6110688484610fcf565b91506110778460608501610fcf565b90509250929050565b634e487b7160e01b600052603260045260246000fd5b634e487b7160e01b600052601160045260246000fd5b80820182811260008312801582168215821617156110cc576110cc611096565b505092915050565b81810360008312801583831316838312821617156110f4576110f4611096565b5092915050565b8051602080830151919081101561111c576000198160200360031b1b821691505b50919050565b600081518084526020808501945080840160005b8381101561115257815187529582019590820190600101611136565b509495945050505050565b8481526080602082015260006111766080830186611122565b60ff949094166040830152506060015292915050565b60006020828403121561119e57600080fd5b5051919050565b6000815180845260005b818110156111cb576020818501810151868301820152016111af565b506000602082860101526020601f19601f83011685010191505092915050565b85815260a06020820152600061120460a0830187611122565b60ff86166040840152828103606084015261121f81866111a5565b9150508260808301529695505050505050565b82815260006020808301845182860160005b8281101561126057815184529284019290840190600101611244565b5091979650505050505050565b8082018082111561033c5761033c611096565b6000600019820361129357611293611096565b5060010190565b634e487b7160e01b600052601260045260246000fd5b6060815260006112c36060830186611122565b65ffffffffffff8516602084015282810360408401526112e381856111a5565b9695505050505050565b8481526080602082015260006113066080830186611122565b65ffffffffffff85166040840152828103606084015261132681856111a5565b979650505050505050565b60608152600061134460608301866111a5565b60208301949094525060400152919050565b8181038181111561033c5761033c61109656fea2646970667358221220b2137e495616ef11faddff6558a048261341ee805efe1e224a9a0aad6eb4f23e64736f6c63430008150033",
    "linkReferences": {}
  },
  "methodIdentifiers": {
    "buyCity(uint256)": "6bec454a",
    "checkAdjacent(int256[3],int256[3])": "bee30025"
  },
  "id": 81
}