{
  "abi": [
    {
      "inputs": [],
      "stateMutability": "nonpayable",
      "type": "constructor"
    },
    {
      "inputs": [
        {
          "internalType": "uint256",
          "name": "length",
          "type": "uint256"
        }
      ],
      "name": "PackedCounter_InvalidLength",
      "type": "error"
    },
    {
      "inputs": [
        {
          "internalType": "bytes",
          "name": "data",
          "type": "bytes"
        },
        {
          "internalType": "uint256",
          "name": "start",
          "type": "uint256"
        },
        {
          "internalType": "uint256",
          "name": "end",
          "type": "uint256"
        }
      ],
      "name": "Slice_OutOfBounds",
      "type": "error"
    },
    {
      "inputs": [
        {
          "internalType": "uint256",
          "name": "length",
          "type": "uint256"
        },
        {
          "internalType": "uint256",
          "name": "accessedIndex",
          "type": "uint256"
        }
      ],
      "name": "Store_IndexOutOfBounds",
      "type": "error"
    },
    {
      "inputs": [
        {
          "internalType": "bytes2",
          "name": "expected",
          "type": "bytes2"
        },
        {
          "internalType": "ResourceId",
          "name": "resourceId",
          "type": "bytes32"
        },
        {
          "internalType": "string",
          "name": "resourceIdString",
          "type": "string"
        }
      ],
      "name": "Store_InvalidResourceType",
      "type": "error"
    },
    {
      "inputs": [
        {
          "internalType": "uint40",
          "name": "startWithinField",
          "type": "uint40"
        },
        {
          "internalType": "uint40",
          "name": "deleteCount",
          "type": "uint40"
        },
        {
          "internalType": "uint40",
          "name": "fieldLength",
          "type": "uint40"
        }
      ],
      "name": "Store_InvalidSplice",
      "type": "error"
    },
    {
      "anonymous": false,
      "inputs": [
        {
          "indexed": true,
          "internalType": "ResourceId",
          "name": "tableId",
          "type": "bytes32"
        },
        {
          "indexed": false,
          "internalType": "bytes32[]",
          "name": "keyTuple",
          "type": "bytes32[]"
        },
        {
          "indexed": false,
          "internalType": "bytes",
          "name": "staticData",
          "type": "bytes"
        },
        {
          "indexed": false,
          "internalType": "PackedCounter",
          "name": "encodedLengths",
          "type": "bytes32"
        },
        {
          "indexed": false,
          "internalType": "bytes",
          "name": "dynamicData",
          "type": "bytes"
        }
      ],
      "name": "Store_SetRecord",
      "type": "event"
    },
    {
      "anonymous": false,
      "inputs": [
        {
          "indexed": true,
          "internalType": "ResourceId",
          "name": "tableId",
          "type": "bytes32"
        },
        {
          "indexed": false,
          "internalType": "bytes32[]",
          "name": "keyTuple",
          "type": "bytes32[]"
        },
        {
          "indexed": false,
          "internalType": "uint48",
          "name": "start",
          "type": "uint48"
        },
        {
          "indexed": false,
          "internalType": "uint40",
          "name": "deleteCount",
          "type": "uint40"
        },
        {
          "indexed": false,
          "internalType": "PackedCounter",
          "name": "encodedLengths",
          "type": "bytes32"
        },
        {
          "indexed": false,
          "internalType": "bytes",
          "name": "data",
          "type": "bytes"
        }
      ],
      "name": "Store_SpliceDynamicData",
      "type": "event"
    },
    {
      "anonymous": false,
      "inputs": [
        {
          "indexed": true,
          "internalType": "ResourceId",
          "name": "tableId",
          "type": "bytes32"
        },
        {
          "indexed": false,
          "internalType": "bytes32[]",
          "name": "keyTuple",
          "type": "bytes32[]"
        },
        {
          "indexed": false,
          "internalType": "uint48",
          "name": "start",
          "type": "uint48"
        },
        {
          "indexed": false,
          "internalType": "bytes",
          "name": "data",
          "type": "bytes"
        }
      ],
      "name": "Store_SpliceStaticData",
      "type": "event"
    },
    {
      "inputs": [
        {
          "internalType": "uint256",
          "name": "cityId",
          "type": "uint256"
        }
      ],
      "name": "buyCity",
      "outputs": [],
      "stateMutability": "payable",
      "type": "function"
    }
  ],
  "bytecode": {
    "object": "0x60806040523480156200001157600080fd5b50620000766000806040518060600160405280600081526020016000815260200160008152506040518060c00160405280600081526020016000815260200160008152602001600181526020016001815260200160018152506200034f60201b60201c565b620000dc60076000604051806060016040528060028152602001600181526020016002198152506040518060c00160405280600081526020016000815260200160008152602001600181526020016001815260200160018152506200034f60201b60201c565b60005b60028110156200034857600062000102620000fc8360076200183c565b6200043c565b90506200016b620001158360076200183c565b6200012290600162001856565b6040805160608101909152835181906200013e90600162001882565b8152602001600185816020020151620001589190620018ad565b8152604085015160209091015262000517565b620001d36200017c8360076200183c565b6200018990600262001856565b604080516060810190915283518190620001a590600162001882565b81526020858101519082015260400160018560025b6020020151620001cb9190620018ad565b905262000517565b62000229620001e48360076200183c565b620001f190600362001856565b6040805160608101909152835181526020810184600160200201516200021990600162001882565b81526020016001856002620001ba565b6200027e6200023a8360076200183c565b6200024790600462001856565b6040805160608101909152835181906200026490600190620018ad565b815260200184600160200201516200015890600162001882565b620002de6200028f8360076200183c565b6200029c90600562001856565b604080516060810190915283518190620002b990600190620018ad565b8152602085810151908201526040018460025b6020020151620001cb90600162001882565b62000332620002ef8360076200183c565b620002fc90600662001856565b60408051606081019091528351815260208101600185816020020151620003249190620018ad565b8152602001846002620002cc565b50806200033f81620018d7565b915050620000df565b5062001d9c565b604080516001600160601b0319606086901b1660208201528151601481830301815260349091019091526000620003878484620005c4565b90506000620003978585620005dc565b60408051600180825281830190925291925060009190602080830190803683370190505090508760001b81600081518110620003d757620003d76200186c565b60209081029190910181019190915260408051613a3160f11b81840152600060228201526543697469657360d01b603082015281518082039093018352810190526200043290620004289062001909565b8286868662000627565b5050505050505050565b6200044662001808565b604080516001808252818301909252600091602080830190803683370190505090508260001b816000815181106200048257620004826200186c565b60209081029190910181019190915260408051613a3160f11b928101929092526000602283018190526543697469657360d01b603084015291620004e49101604051602081830303815290604052620004db9062001909565b836000620006ce565b90506200050f620005096200050383600085516200078760201b60201c565b62000806565b62000818565b949350505050565b604080516001808252818301909252600091602080830190803683370190505090508260001b816000815181106200055357620005536200186c565b60209081029190910181019190915260408051613a3160f11b81840152600060228201526204d61760ec1b60308201528151808203909301835281019052620005bf90620005a19062001909565b826000620005b9620005b38762000839565b62000875565b62000887565b505050565b60006cc00000000060000000000001205b9392505050565b6060620005ed620005b38462000839565b620005fc620005b3846200092a565b6040516020016200060f92919062001957565b60405160208183030381529060405290505b92915050565b60006200063362000960565b9050306001600160a01b038216036200065b57620006558686868686620009a0565b620006c6565b60405163298314fb60e01b81526001600160a01b0382169063298314fb90620006919089908990899089908990600401620019f5565b600060405180830381600087803b158015620006ac57600080fd5b505af1158015620006c1573d6000803e3d6000fd5b505050505b505050505050565b60606000620006dc62000960565b9050306001600160a01b038216036200070557620006fc858585620009ba565b915050620005d5565b604051631e78897760e01b81526001600160a01b03821690631e78897790620007379088908890889060040162001a4c565b600060405180830381865afa15801562000755573d6000803e3d6000fd5b505050506040513d6000823e601f3d908101601f19168201604052620006fc919081019062001a7a565b509392505050565b60008183111580156200079b575083518211155b620007ca578383836040516323230fa360e01b8152600401620007c19392919062001b32565b60405180910390fd5b60208401620007da848262001856565b90506000620007ea858562001b59565b6001600160801b031660809290921b9190911795945050505050565b60606000620005d583602083620009fb565b6200082262001808565b6003825110156200083257919050565b5060200190565b6040805160038082526080820190925260609160208201838036833701905050905081602082016200086e8282606062000a73565b5050919050565b606081620005d5816020600062000ac2565b60006200089362000960565b9050306001600160a01b03821603620008ba57620008b48585858562000b1a565b62000923565b6040516377b7543160e11b81526001600160a01b0382169063ef6ea86290620008ee90889088908890889060040162001b6f565b600060405180830381600087803b1580156200090957600080fd5b505af11580156200091e573d6000803e3d6000fd5b505050505b5050505050565b60408051600680825260e082019092526060916020820160c08036833701905050905081602082016200086e828260c062000a73565b7f629a4c26e296b22a8e0856e9f6ecb2d1008d7e00081111962cd175fa7488e175546000906001600160a01b0316806200099b573391505090565b919050565b620009238585858585620009b48562000b5a565b62000c1d565b60606200050f620009cd85858562000ee9565b620009f384620009de888862000f53565b9060ff166028026038011c64ffffffffff1690565b600062000f69565b6060600062000a0a8560801c90565b90506001600160801b038516600085828162000a2a5762000a2a62001ba7565b04905060405193506020840160208202810160405281855260005b8281101562000a67578451871c82529387019360209091019060010162000a45565b50505050509392505050565b5b6020811062000a95578251825260209283019290910190601f190162000a74565b8060000362000aa357505050565b6000600019600883021c19905080198351168185511617835250505050565b8251606090600062000ad585836200183c565b9050604051925060208301601f19603f83860101166040528184526000602088015b8482101562000a67578051871b8352918701916001919091019060200162000af7565b600062000b28858562000f53565b9050600062000b46828560ff166028026038011c64ffffffffff1690565b9050620006c6868686600085888862000f8e565b60408051613a3160f11b60208201526473746f726560d81b6022820152655461626c657360d01b60308201526000910160405160208183030381529060405262000ba49062001909565b820362000bbb57506503001811010160cd1b919050565b60408051613a3160f11b60208201526473746f726560d81b6022820152655461626c657360d01b6030820152620006219162000c13910160405160208183030381529060405262000c0c9062001909565b846200136f565b60206000620013c8565b857f8dbb3a9672eebfd3773e72dd9c102393436816d832c7ba9e1e1ac8fcadcac7a98686868660405162000c55949392919062001bbd565b60405180910390a2613a3160f11b866001600160f01b03191603620006c657600062000c81876200141e565b905060005b815181101562000d4f57600082828151811062000ca75762000ca76200186c565b6020908102919091010151905062000ccb6001600160581b031982166001620014e4565b1562000d39576040516315c19b2760e21b8152606082901c906357066c9c9062000d04908c908c908c908c908c908c9060040162001c02565b600060405180830381600087803b15801562000d1f57600080fd5b505af115801562000d34573d6000803e3d6000fd5b505050505b508062000d4681620018d7565b91505062000c86565b50600062000d5e888862001503565b9050600060208701905062000d7e826000838a516200151a60201b60201c565b600062000d8b85620015e3565b111562000e1d57600062000da08a8a62001628565b878155905060208601915060008060005b62000dbc88620015e3565b8160ff16101562000e185762000dd48d8d8362000ee9565b925062000df08a8260ff166028026038011c64ffffffffff1690565b915062000e0183600087856200151a565b62000e0d828662001856565b945060010162000db1565b505050505b60005b8351811015620006c157600084828151811062000e415762000e416200186c565b6020908102919091010151905062000e656001600160581b031982166002620014e4565b1562000ed357604051635b28cdaf60e01b8152606082901c90635b28cdaf9062000e9e908e908e908e908e908e908e9060040162001c02565b600060405180830381600087803b15801562000eb957600080fd5b505af115801562000ece573d6000803e3d6000fd5b505050505b508062000ee081620018d7565b91505062000e20565b6000838360405160200162000f0092919062001c61565b604051602081830303815290604052805190602001208260f81b6001600160f81b0319167f3b4102da22e32d82fc925482184f16c09fd4281692720b87d124aef6da48a0f1181860001c90509392505050565b6000620005d562000f65848462001628565b5490565b60405160208101601f19603f85840101166040528382526200077f8585858462001680565b613a3160f11b876001600160f01b0319161462000feb57613a3160f11b878860405160200162000fc091815260200190565b60408051601f19818403018152908290526331b4668360e01b8252620007c193929160040162001c9e565b600062001007828760ff166028026038011c64ffffffffff1690565b9050600083518564ffffffffff168362001022919062001b59565b6200102e919062001856565b90508082141580156200105357508162001049868862001ccf565b64ffffffffff1614155b156200108c57604051632994042d60e21b815264ffffffffff8088166004830152808716602483015283166044820152606401620007c1565b818664ffffffffff161115620010c657604051637e8578d360e01b81526004810183905264ffffffffff87166024820152604401620007c1565b6000620010d584898462001743565b905064ffffffffff871660005b8960ff168160ff16101562001118576200110b868260ff166028026038011c64ffffffffff1690565b90910190600101620010e2565b508a7faa63765a776145e5e6492f471ae097dfed11cd57a61bc2679dd43180422385b48b838a868b6040516200115395949392919062001cf0565b60405180910390a2506000620011698b6200141e565b905060005b8151811015620012425760008282815181106200118f576200118f6200186c565b60209081029190910101519050620011b36001600160581b031982166010620014e4565b156200122c57606081901c6001600160a01b03166355eb5a288e8e8e8e8e8a8f6040518863ffffffff1660e01b8152600401620011f7979695949392919062001d3a565b600060405180830381600087803b1580156200121257600080fd5b505af115801562001227573d6000803e3d6000fd5b505050505b50806200123981620018d7565b9150506200116e565b508284146200125e576000620012598c8c62001628565b839055505b60006200126d8c8c8c62000ee9565b9050620012838164ffffffffff8b1689620017e4565b5060005b815181101562001361576000828281518110620012a857620012a86200186c565b60200260200101519050620012d26020826001600160581b031916620014e460201b90919060201c565b156200134b57606081901c6001600160a01b031663635845338e8e8e8e8e8a8f6040518863ffffffff1660e01b815260040162001316979695949392919062001d3a565b600060405180830381600087803b1580156200133157600080fd5b505af115801562001346573d6000803e3d6000fd5b505050505b50806200135881620018d7565b91505062001287565b505050505050505050505050565b60408051602081018490529081018290526000906060015b60408051601f1981840301815291905280516020909101207f86425bff6b57326c7859e89024fe4f238ca327a1ae4a230180dd2f0e88aaa7d9189392505050565b600060208210620013f257602082048401935060208281620013ee57620013ee62001ba7565b0691505b508254600882021b6020829003808411156200077f576001850154600882021c82179150509392505050565b604080516001808252818301909252606091600091906020808301908036833701905050905082816000815181106200145b576200145b6200186c565b60209081029190910181019190915260408051613a3160f11b818401526473746f726560d81b60228201526953746f7265486f6f6b7360b01b60308201528151808203909301835281019052600090620014c390620014ba9062001909565b836000620009ba565b90506200050f620014de82600084516200078760201b60201c565b620017f6565b600060ff821682620014f68560581c90565b1660ff1614905092915050565b600082826040516020016200138792919062001c61565b82156200159c5760208310620015495760208304840193506020838162001545576200154562001ba7565b0692505b82156200159c5760208390036000600019600884021c1990506008850281811c91508451811c90508119875416828216178755508183116200158d575050620015dd565b50600194909401939182019190035b5b60208110620015c05781518455600190930192602090910190601f19016200159d565b8015620015dd5783548251600019600884021c9182169119161784555b50505050565b60006008600180620015f86002602062001b59565b62001604919062001b59565b62001610919062001b59565b6200161c91906200183c565b8260ff911c1692915050565b600082826040516020016200163f92919062001c61565b60408051601f1981840301815291905280516020909101207f14e2fcc58e58e68ec7edc30c8d50dccc3ce2714a623ec81f46b6a63922d76569189392505050565b8115620016fa5760208210620016af57602082048401935060208281620016ab57620016ab62001ba7565b0691505b8115620016fa5760208290036000600019600883021c1990508554600885021b811984511682821617845250818511620016eb575050620015dd565b50600194909401939283900392015b5b602083106200171e5783548152600190930192601f1990920191602001620016fb565b8215620015dd576000600019600885021c198251865482169119161782525050505050565b600064ffffffffff82111562001770576040516308ece0b160e31b815260048101839052602401620007c1565b8366ffffffffffffff811660ff851660280260380182901c64ffffffffff16808510620017a45780850382019150620017ac565b848103820391505b5064ffffffffff6038602860ff8816020181811b1966ffffffffffffff199490941690921792909216918416901b1790509392505050565b620005bf83836020840184516200151a565b60606000620005d583601583620009fb565b60405180606001604052806003906020820280368337509192915050565b634e487b7160e01b600052601160045260246000fd5b808202811582820484141762000621576200062162001826565b8082018082111562000621576200062162001826565b634e487b7160e01b600052603260045260246000fd5b8082018281126000831280158216821582161715620018a557620018a562001826565b505092915050565b8181036000831280158383131683831282161715620018d057620018d062001826565b5092915050565b600060018201620018ec57620018ec62001826565b5060010190565b634e487b7160e01b600052604160045260246000fd5b805160208083015191908110156200192b576000198160200360031b1b821691505b50919050565b60005b838110156200194e57818101518382015260200162001934565b50506000910152565b600083516200196b81846020880162001931565b8351908301906200198181836020880162001931565b01949350505050565b600081518084526020808501945080840160005b83811015620019bc578151875295820195908201906001016200199e565b509495945050505050565b60008151808452620019e181602086016020860162001931565b601f01601f19169290920160200192915050565b85815260a06020820152600062001a1060a08301876200198a565b828103604084015262001a248187620019c7565b9050846060840152828103608084015262001a408185620019c7565b98975050505050505050565b83815260606020820152600062001a6760608301856200198a565b905060ff83166040830152949350505050565b60006020828403121562001a8d57600080fd5b81516001600160401b038082111562001aa557600080fd5b818401915084601f83011262001aba57600080fd5b81518181111562001acf5762001acf620018f3565b604051601f8201601f19908116603f0116810190838211818310171562001afa5762001afa620018f3565b8160405282815287602084870101111562001b1457600080fd5b62001b2783602083016020880162001931565b979650505050505050565b60608152600062001b476060830186620019c7565b60208301949094525060400152919050565b8181038181111562000621576200062162001826565b84815260806020820152600062001b8a60808301866200198a565b60ff85166040840152828103606084015262001b278185620019c7565b634e487b7160e01b600052601260045260246000fd5b60808152600062001bd260808301876200198a565b828103602084015262001be68187620019c7565b9050846040840152828103606084015262001b278185620019c7565b86815260c06020820152600062001c1d60c08301886200198a565b828103604084015262001c318188620019c7565b9050856060840152828103608084015262001c4d8186620019c7565b9150508260a0830152979650505050505050565b82815260006020808301845182860160005b8281101562001c915781518452928401929084019060010162001c73565b5091979650505050505050565b61ffff60f01b8416815282602082015260606040820152600062001cc66060830184620019c7565b95945050505050565b64ffffffffff818116838216019080821115620018d057620018d062001826565b60a08152600062001d0560a08301886200198a565b65ffffffffffff8716602084015264ffffffffff86166040840152846060840152828103608084015262001a408185620019c7565b87815260e06020820152600062001d5560e08301896200198a565b60ff8816604084015264ffffffffff87811660608501528616608084015260a0830185905282810360c084015262001d8e8185620019c7565b9a9950505050505050505050565b6110ed8062001dac6000396000f3fe60806040526004361061001e5760003560e01c80636bec454a14610023575b600080fd5b610036610031366004610db9565b610038565b005b6509184e72a0003410156100ad576040517f08c379a000000000000000000000000000000000000000000000000000000000815260206004820152601a60248201527f4e6f7420302e303030303120657468206f72206772656174657200000000000060448201526064015b60405180910390fd5b60006100b882610142565b73ffffffffffffffffffffffffffffffffffffffff1614610135576040517f08c379a000000000000000000000000000000000000000000000000000000000815260206004820152601760248201527f4369747920697320616c726561647920636c61696d656400000000000000000060448201526064016100a4565b61013f813361021e565b50565b604080516001808252818301909252600091829190602080830190803683370190505090508260001b8160008151811061017e5761017e610dd2565b60209081029190910181019190915260408051613a3160f11b928101929092526000602283018190527f436974696573000000000000000000000000000000000000000000000000000060308401529161021391016040516020818303038152906040526101eb90610e01565b8360007e1401021400000000000000000000000000000000000000000000000000000061032d565b60601c949350505050565b604080516001808252818301909252600091602080830190803683370190505090508260001b8160008151811061025757610257610dd2565b60209081029190910181019190915260408051613a3160f11b81840152600060228201527f436974696573000000000000000000000000000000000000000000000000000060308201528151808203909301835281019052610328906102bc90610e01565b6040517fffffffffffffffffffffffffffffffffffffffff000000000000000000000000606086901b166020820152839060009060340160408051601f198184030181529190527e1401021400000000000000000000000000000000000000000000000000000061040c565b505050565b6000806103386104dc565b90503073ffffffffffffffffffffffffffffffffffffffff82160361036b5761036386868686610528565b915050610404565b6040517f8c364d5900000000000000000000000000000000000000000000000000000000815273ffffffffffffffffffffffffffffffffffffffff821690638c364d59906103c3908990899089908990600401610e63565b602060405180830381865afa1580156103e0573d6000803e3d6000fd5b505050506040513d601f19601f820116820180604052508101906103639190610e92565b949350505050565b60006104166104dc565b90503073ffffffffffffffffffffffffffffffffffffffff82160361044757610442868686868661055e565b6104d4565b6040517f390baae000000000000000000000000000000000000000000000000000000000815273ffffffffffffffffffffffffffffffffffffffff82169063390baae0906104a19089908990899089908990600401610ef1565b600060405180830381600087803b1580156104bb57600080fd5b505af11580156104cf573d6000803e3d6000fd5b505050505b505050505050565b7f629a4c26e296b22a8e0856e9f6ecb2d1008d7e00081111962cd175fa7488e1755460009073ffffffffffffffffffffffffffffffffffffffff1680610523573391505090565b919050565b6000610555610537868661057a565b60ff858116601b0360080285901c1661055085876105d3565b610616565b95945050505050565b610573858561056d84876105d3565b85610667565b5050505050565b6000828260405160200161058f929190610f38565b604051602081830303815290604052805190602001207f86425bff6b57326c7859e89024fe4f238ca327a1ae4a230180dd2f0e88aaa7d91860001c90505b92915050565b600080805b8360ff1681101561060e576105fa60ff601b83900360080287901c1683610fa2565b91508061060681610fb5565b9150506105d8565b509392505050565b60006020821061063c5760208204840193506020828161063857610638610fcf565b0691505b508254600882021b60208290038084111561060e576001850154600882021c82179150509392505050565b6000610673858561057a565b9050847f8c0b5119d4cec7b284c6b1b39252a03d1e2f2d7451a5895562524c113bb952be8585856040516106a993929190610ffe565b60405180910390a2613a3160f11b857fffff00000000000000000000000000000000000000000000000000000000000016146106e557506108c4565b60006106f0866108ca565b905060005b81518110156107cf57600082828151811061071257610712610dd2565b6020026020010151905061073e6004826affffffffffffffffffffff19166109aa90919063ffffffff16565b156107bc576040517f964f667d000000000000000000000000000000000000000000000000000000008152606082901c9063964f667d90610789908b908b908b908b9060040161103b565b600060405180830381600087803b1580156107a357600080fd5b505af11580156107b7573d6000803e3d6000fd5b505050505b50806107c781610fb5565b9150506106f5565b506107e3828565ffffffffffff16856109c8565b60005b81518110156108c057600082828151811061080357610803610dd2565b6020026020010151905061082f6008826affffffffffffffffffffff19166109aa90919063ffffffff16565b156108ad576040517fa8ba8721000000000000000000000000000000000000000000000000000000008152606082901c9063a8ba87219061087a908b908b908b908b9060040161103b565b600060405180830381600087803b15801561089457600080fd5b505af11580156108a8573d6000803e3d6000fd5b505050505b50806108b881610fb5565b9150506107e6565b5050505b50505050565b6040805160018082528183019092526060916000919060208083019080368337019050509050828160008151811061090457610904610dd2565b60209081029190910181019190915260408051613a3160f11b818401527f73746f726500000000000000000000000000000000000000000000000000000060228201527f53746f7265486f6f6b7300000000000000000000000000000000000000000000603082015281518082039093018352810190526000906109939061098b90610e01565b8360006109d8565b90506104046109a58260008451610a12565b610aa2565b60008160ff16826109bb8560581c90565b1660ff1614905092915050565b6103288383602084018451610aba565b60606104046109e8858585610b7a565b610a0b846109f68888610bfa565b9060ff166028026038011c64ffffffffff1690565b6000610c0d565b6000818311158015610a25575083518211155b610a61578383836040517f23230fa30000000000000000000000000000000000000000000000000000000081526004016100a49392919061107f565b60208401610a6f8482610fa2565b90506000610a7d85856110a4565b6fffffffffffffffffffffffffffffffff1660809290921b9190911795945050505050565b60606000610ab38360156000610c30565b9392505050565b8215610b345760208310610ae457602083048401935060208381610ae057610ae0610fcf565b0692505b8215610b345760208390036000600019600884021c1990506008850281811c91508451811c9050811987541682821617875550818311610b255750506108c4565b50600194909401939182019190035b5b60208110610b565781518455600190930192602090910190601f1901610b35565b80156108c4576000600019600883021c198554845182169119161785555050505050565b60008383604051602001610b8f929190610f38565b604051602081830303815290604052805190602001208260f81b7effffffffffffffffffffffffffffffffffffffffffffffffffffffffffffff19167f3b4102da22e32d82fc925482184f16c09fd4281692720b87d124aef6da48a0f1181860001c90509392505050565b6000610ab3610c098484610cab565b5490565b60405160208101601f19603f858401011660405283825261060e85858584610d01565b60606000610c3e8560801c90565b90506fffffffffffffffffffffffffffffffff85166000858281610c6457610c64610fcf565b04905060405193506020840160208202810160405281855260005b82811015610c9f578451871c825293870193602090910190600101610c7f565b50505050509392505050565b60008282604051602001610cc0929190610f38565b60408051601f1981840301815291905280516020909101207f14e2fcc58e58e68ec7edc30c8d50dccc3ce2714a623ec81f46b6a63922d76569189392505050565b8115610d735760208210610d2b57602082048401935060208281610d2757610d27610fcf565b0691505b8115610d735760208290036000600019600883021c1990508554600885021b811984511682821617845250818511610d645750506108c4565b50600194909401939283900392015b5b60208310610d955783548152600190930192601f1990920191602001610d74565b82156108c4576000600019600885021c198251865482169119161782525050505050565b600060208284031215610dcb57600080fd5b5035919050565b7f4e487b7100000000000000000000000000000000000000000000000000000000600052603260045260246000fd5b80516020808301519190811015610e22576000198160200360031b1b821691505b50919050565b600081518084526020808501945080840160005b83811015610e5857815187529582019590820190600101610e3c565b509495945050505050565b848152608060208201526000610e7c6080830186610e28565b60ff949094166040830152506060015292915050565b600060208284031215610ea457600080fd5b5051919050565b6000815180845260005b81811015610ed157602081850181015186830182015201610eb5565b506000602082860101526020601f19601f83011685010191505092915050565b85815260a060208201526000610f0a60a0830187610e28565b60ff861660408401528281036060840152610f258186610eab565b9150508260808301529695505050505050565b82815260006020808301845182860160005b82811015610f6657815184529284019290840190600101610f4a565b5091979650505050505050565b7f4e487b7100000000000000000000000000000000000000000000000000000000600052601160045260246000fd5b808201808211156105cd576105cd610f73565b60006000198203610fc857610fc8610f73565b5060010190565b7f4e487b7100000000000000000000000000000000000000000000000000000000600052601260045260246000fd5b6060815260006110116060830186610e28565b65ffffffffffff8516602084015282810360408401526110318185610eab565b9695505050505050565b8481526080602082015260006110546080830186610e28565b65ffffffffffff8516604084015282810360608401526110748185610eab565b979650505050505050565b6060815260006110926060830186610eab565b60208301949094525060400152919050565b818103818111156105cd576105cd610f7356fea2646970667358221220c39a8b26659fe53a63aed64ae1b236289102a1787d5062f9763ac5f06cd7abdf64736f6c63430008150033",
    "linkReferences": {}
  },
  "methodIdentifiers": {
    "buyCity(uint256)": "6bec454a"
  },
  "id": 154
}